{
  "contractName": "Election",
  "abi": [
    {
      "inputs": [],
      "payable": false,
      "stateMutability": "nonpayable",
      "type": "constructor"
    },
    {
      "anonymous": false,
      "inputs": [
        {
          "indexed": false,
          "internalType": "uint256",
          "name": "indexed_candidateId",
          "type": "uint256"
        }
      ],
      "name": "votedEvent",
      "type": "event"
    },
    {
      "constant": true,
      "inputs": [
        {
          "internalType": "uint256",
          "name": "",
          "type": "uint256"
        }
      ],
      "name": "candidates",
      "outputs": [
        {
          "internalType": "uint256",
          "name": "id",
          "type": "uint256"
        },
        {
          "internalType": "string",
          "name": "name",
          "type": "string"
        },
        {
          "internalType": "uint256",
          "name": "votecount",
          "type": "uint256"
        }
      ],
      "payable": false,
      "stateMutability": "view",
      "type": "function"
    },
    {
      "constant": true,
      "inputs": [],
      "name": "candidatescount",
      "outputs": [
        {
          "internalType": "uint256",
          "name": "",
          "type": "uint256"
        }
      ],
      "payable": false,
      "stateMutability": "view",
      "type": "function"
    },
    {
      "constant": true,
      "inputs": [
        {
          "internalType": "address",
          "name": "",
          "type": "address"
        }
      ],
      "name": "voters",
      "outputs": [
        {
          "internalType": "bool",
          "name": "",
          "type": "bool"
        }
      ],
      "payable": false,
      "stateMutability": "view",
      "type": "function"
    },
    {
      "constant": false,
      "inputs": [
        {
          "internalType": "uint256",
          "name": "_candidateId",
          "type": "uint256"
        }
      ],
      "name": "vote",
      "outputs": [],
      "payable": false,
      "stateMutability": "nonpayable",
      "type": "function"
    }
  ],
  "bytecode": "0x608060405234801561001057600080fd5b506100556040518060400160405280600681526020017f42687576616e00000000000000000000000000000000000000000000000000008152506101ae60201b60201c565b6100996040518060400160405280600481526020017f41727961000000000000000000000000000000000000000000000000000000008152506101ae60201b60201c565b6100dd6040518060400160405280600581526020017f4d6f6869740000000000000000000000000000000000000000000000000000008152506101ae60201b60201c565b6101216040518060400160405280600481526020017f4d6f6469000000000000000000000000000000000000000000000000000000008152506101ae60201b60201c565b6101656040518060400160405280600581526020017f50617070750000000000000000000000000000000000000000000000000000008152506101ae60201b60201c565b6101a96040518060400160405280600981526020017f536f6e7520536f6f6400000000000000000000000000000000000000000000008152506101ae60201b60201c565b6102cf565b60026000815480929190600101919050555060405180606001604052806002548152602001828152602001600081525060016000600254815260200190815260200160002060008201518160000155602082015181600101908051906020019061021992919061022a565b506040820151816002015590505050565b828054600181600116156101000203166002900490600052602060002090601f016020900481019282601f1061026b57805160ff1916838001178555610299565b82800160010185558215610299579182015b8281111561029857825182559160200191906001019061027d565b5b5090506102a691906102aa565b5090565b6102cc91905b808211156102c85760008160009055506001016102b0565b5090565b90565b6103f3806102de6000396000f3fe608060405234801561001057600080fd5b506004361061004c5760003560e01c80630121b93f146100515780633477ee2e1461007f578063a3ec138d14610134578063fe3a4bd214610190575b600080fd5b61007d6004803603602081101561006757600080fd5b81019080803590602001909291905050506101ae565b005b6100ab6004803603602081101561009557600080fd5b81019080803590602001909291905050506102d6565b6040518084815260200180602001838152602001828103825284818151815260200191508051906020019080838360005b838110156100f75780820151818401526020810190506100dc565b50505050905090810190601f1680156101245780820380516001836020036101000a031916815260200191505b5094505050505060405180910390f35b6101766004803603602081101561014a57600080fd5b81019080803573ffffffffffffffffffffffffffffffffffffffff169060200190929190505050610398565b604051808215151515815260200191505060405180910390f35b6101986103b8565b6040518082815260200191505060405180910390f35b6000803373ffffffffffffffffffffffffffffffffffffffff1673ffffffffffffffffffffffffffffffffffffffff16815260200190815260200160002060009054906101000a900460ff161561020457600080fd5b60008111801561021657506002548111155b61021f57600080fd5b60016000803373ffffffffffffffffffffffffffffffffffffffff1673ffffffffffffffffffffffffffffffffffffffff16815260200190815260200160002060006101000a81548160ff02191690831515021790555060016000828152602001908152602001600020600201600081548092919060010191905055507ffff3c900d938d21d0990d786e819f29b8d05c1ef587b462b939609625b684b16816040518082815260200191505060405180910390a150565b6001602052806000526040600020600091509050806000015490806001018054600181600116156101000203166002900480601f0160208091040260200160405190810160405280929190818152602001828054600181600116156101000203166002900480156103885780601f1061035d57610100808354040283529160200191610388565b820191906000526020600020905b81548152906001019060200180831161036b57829003601f168201915b5050505050908060020154905083565b60006020528060005260406000206000915054906101000a900460ff1681565b6002548156fea265627a7a7231582027c3295ba10bf5355e58ce5a9d1b9383977f1907ae37c0b0fa44044af4c2d60964736f6c63430005100032",
  "source": "// SPDX-License-Identifier: MIT\r\npragma solidity ^0.5.16;\r\n \r\n contract Election{\r\n     struct candidate{\r\n         uint id;\r\n         string name;\r\n         uint votecount;\r\n     }\r\n       mapping(address => bool) public voters;\r\n     mapping(uint => candidate) public candidates;\r\n     uint public candidatescount;\r\n      event votedEvent(\r\n         uint indexed_candidateId\r\n     );\r\n    constructor() public {\r\n        addcandidate(\"Bhuvan\");\r\n        addcandidate(\"Arya\");\r\n        addcandidate(\"Mohit\");\r\n        addcandidate(\"Modi\");\r\n        addcandidate(\"Pappu\");\r\n        addcandidate(\"Sonu Sood\");\r\n\r\n     }\r\n     function addcandidate(string memory _name) private {\r\n         candidatescount++;\r\n         candidates[candidatescount]=candidate(candidatescount,_name,0);\r\n\r\n     }\r\n\r\n     function vote (uint _candidateId) public{\r\n         require(!voters[msg.sender]);\r\n         require(_candidateId>0 && _candidateId<=candidatescount);\r\n        voters[msg.sender]=true; \r\n         candidates[_candidateId].votecount++;\r\n         \r\n         emit votedEvent(_candidateId);\r\n\r\n         \r\n     }\r\n }",
  "sourcePath": "C:/WINDOWS/system32/election/contracts/Election.sol",
  "compiler": {
    "name": "solc",
    "version": "0.5.16+commit.9c3226ce.Emscripten.clang"
  },
  "schemaVersion": "3.4.1",
  "updatedAt": "2021-05-28T05:06:03.378Z",
  "networkType": "ethereum",
  "devdoc": {
    "methods": {}
  },
  "userdoc": {
    "methods": {}
  }
}